2016NE00010800----------11342*1231)))*                200809180NY0100000111CTUSN196304230YYY20NNNN                    YNNNNNNNNNNNNNN                                                                                                                                                                                                                                                                                                90NNNN                    YNNNNNNNNNNNNNN                                                                                                                                                                                                                                                                                                1N1202200707122008120511023402550N02000002200599999900000000220071001NNNNNNNNN000NNNNNNNNNNNNNNNNNNNNNNNN11NNNNNNN1234009008000208141234560NNNNNNNNNNNNNNNNNNNYYY        3842NNN                                                                                                                                                                                                                                                                                                                                                                                                                                                                                                                                                                                                                                                                                                                                                                                                                                                                                                                                                                                                                                                                                                                 1234567899876543213742                         123                         123                         058                         059AK        11      13                                                                                                                                                                                                                                                                                                                                                                                                                                                                                                                                                                                                                                Y1NN                                                                                                                                       1                                                  2008080120080810                                                  0 000208                             SD                                                                                                                                                                                                                                                                                                                                                                                                                                                                                                                                                                                                                                                                                                                                                                                                                                                                                                                                                                                
2016CT00010800000000000011342Mhhhh0349                200809180NY0100000111CTUSN196304230YYY20NNNN                    YNNNNNNNNNNNNNN                                                                                                                                                                                                                                                                                                90NNNN                    YNNNNNNNNNNNNNN                                                                                                                                                                                                                                                                                                1N1202200707122008120511023402550N02000002200599999900000000220071001NNNNNNNNN000NNNNNNNNNNNNNNNNNNNNNNNN11NNNNNNN1234009008000208141234560NNNNNNNNNNNNNNNNNNNYYY        3842NNN                                                                                                                                                                                                                                                                                                                                                                                                                                                                                                                                                                                                                                                                                                                                                                                                                                                                                                                                                                                                                                                                                                                 1234567899876543213742                         123                         123                         058                         059AK        11      13                                                                                                                                                                                                                                                                                                                                                                                                                                                                                                                                                                                                                                Y1NN                                                                                                                                       1                                                  2008080120080810                                                  0 000208                             NY                                                                                                                                                                                                                                                                                                                                                                                                                                                                                                                                                                                                                                                                                                                                                                                                                                                                                                                                                                                
2016NE00010800----------11342*1231)))*                200809180NY0100000111CTUSN196304230YYY20NNNN                    YNNNNNNNNNNNNNN                                                                                                                                                                                                                                                                                                90NNNN                    YNNNNNNNNNNNNNN                                                                                                                                                                                                                                                                                                1N1202200707122008120511023402550N02000002200599999900000000220071001NNNNNNNNN000NNNNNNNNNNNNNNNNNNNNNNNN11NNNNNNN1234009008000208141234560NNNNNNNNNNNNNNNNNNNYYY        3842NNN                                                                                                                                                                                                                                                                                                                                                                                                                                                                                                                                                                                                                                                                                                                                                                                                                                                                                                                                                                                                                                                                                                                 1234567899876543213742                         123                         123                         058                         059AK        11      13                                                                                                                                                                                                                                                                                                                                                                                                                                                                                                                                                                                                                                Y1NN                                                                                                                                       1                                                  2008080120080810                                                  0 000208                             SD                                                                                                                                                                                                                                                                                                                                                                                                                                                                                                                                                                                                                                                                                                                                                                                                                                                                                                                                                                                
2016CT00010800000000000011342Mhhhh0349                200809180NY0100000111CTUSN196304230YYY20NNNN                    YNNNNNNNNNNNNNN                                                                                                                                                                                                                                                                                                90NNNN                    YNNNNNNNNNNNNNN                                                                                                                                                                                                                                                                                                1N1202200707122008120511023402550N02000002200599999900000000220071001NNNNNNNNN000NNNNNNNNNNNNNNNNNNNNNNNN11NNNNNNN1234009008000208141234560NNNNNNNNNNNNNNNNNNNYYY        3842NNN                                                                                                                                                                                                                                                                                                                                                                                                                                                                                                                                                                                                                                                                                                                                                                                                                                                                                                                                                                                                                                                                                                                 1234567899876543213742                         123                         123                         058                         059AK        11      13                                                                                                                                                                                                                                                                                                                                                                                                                                                                                                                                                                                                                                Y1NN                                                                                                                                       1                                                  2008080120080810                                                  0 000208                             NY                                                                                                                                                                                                                                                                                                                                                                                                                                                                                                                                                                                                                                                                                                                                                                                                                                                                                                                                                                                
2016NE00010800----------11342*1231)))*                200809180NY0100000111CTUSN196304230YYY20NNNN                    YNNNNNNNNNNNNNN                                                                                                                                                                                                                                                                                                90NNNN                    YNNNNNNNNNNNNNN                                                                                                                                                                                                                                                                                                1N1202200707122008120511023402550N02000002200599999900000000220071001NNNNNNNNN000NNNNNNNNNNNNNNNNNNNNNNNN11NNNNNNN1234009008000208141234560NNNNNNNNNNNNNNNNNNNYYY        3842NNN                                                                                                                                                                                                                                                                                                                                                                                                                                                                                                                                                                                                                                                                                                                                                                                                                                                                                                                                                                                                                                                                                                                 1234567899876543213742                         123                         123                         058                         059AK        11      13                                                                                                                                                                                                                                                                                                                                                                                                                                                                                                                                                                                                                                Y1NN                                                                                                                                       1                                                  2008080120080810                                                  0 000208                             SD                                                                                                                                                                                                                                                                                                                                                                                                                                                                                                                                                                                                                                                                                                                                                                                                                                                                                                                                                                                
2016CT00010800000000000011342Mhhhh0349                200809180NY0100000111CTUSN196304230YYY20NNNN                    YNNNNNNNNNNNNNN                                                                                                                                                                                                                                                                                                90NNNN                    YNNNNNNNNNNNNNN                                                                                                                                                                                                                                                                                                1N1202200707122008120511023402550N02000002200599999900000000220071001NNNNNNNNN000NNNNNNNNNNNNNNNNNNNNNNNN11NNNNNNN1234009008000208141234560NNNNNNNNNNNNNNNNNNNYYY        3842NNN                                                                                                                                                                                                                                                                                                                                                                                                                                                                                                                                                                                                                                                                                                                                                                                                                                                                                                                                                                                                                                                                                                                 1234567899876543213742                         123                         123                         058                         059AK        11      13                                                                                                                                                                                                                                                                                                                                                                                                                                                                                                                                                                                                                                Y1NN                                                                                                                                       1                                                  2008080120080810                                                  0 000208                             NY                                                                                                                                                                                                                                                                                                                                                                                                                                                                                                                                                                                                                                                                                                                                                                                                                                                                                                                                                                                
2016NE00010800----------11342*1231)))*                200809180NY0100000111CTUSN196304230YYY20NNNN                    YNNNNNNNNNNNNNN                                                                                                                                                                                                                                                                                                90NNNN                    YNNNNNNNNNNNNNN                                                                                                                                                                                                                                                                                                1N1202200707122008120511023402550N02000002200599999900000000220071001NNNNNNNNN000NNNNNNNNNNNNNNNNNNNNNNNN11NNNNNNN1234009008000208141234560NNNNNNNNNNNNNNNNNNNYYY        3842NNN                                                                                                                                                                                                                                                                                                                                                                                                                                                                                                                                                                                                                                                                                                                                                                                                                                                                                                                                                                                                                                                                                                                 1234567899876543213742                         123                         123                         058                         059AK        11      13                                                                                                                                                                                                                                                                                                                                                                                                                                                                                                                                                                                                                                Y1NN                                                                                                                                       1                                                  2008080120080810                                                  0 000208                             SD                                                                                                                                                                                                                                                                                                                                                                                                                                                                                                                                                                                                                                                                                                                                                                                                                                                                                                                                                                                
2016CT00010800000000000011342Mhhhh0349                200809180NY0100000111CTUSN196304230YYY20NNNN                    YNNNNNNNNNNNNNN                                                                                                                                                                                                                                                                                                90NNNN                    YNNNNNNNNNNNNNN                                                                                                                                                                                                                                                                                                1N1202200707122008120511023402550N02000002200599999900000000220071001NNNNNNNNN000NNNNNNNNNNNNNNNNNNNNNNNN11NNNNNNN1234009008000208141234560NNNNNNNNNNNNNNNNNNNYYY        3842NNN                                                                                                                                                                                                                                                                                                                                                                                                                                                                                                                                                                                                                                                                                                                                                                                                                                                                                                                                                                                                                                                                                                                 1234567899876543213742                         123                         123                         058                         059AK        11      13                                                                                                                                                                                                                                                                                                                                                                                                                                                                                                                                                                                                                                Y1NN                                                                                                                                       1                                                  2008080120080810                                                  0 000208                             NY                                                                                                                                                                                                                                                                                                                                                                                                                                                                                                                                                                                                                                                                                                                                                                                                                                                                                                                                                                                
2016NE00010800----------11342*1231)))*                200809180NY0100000111CTUSN196304230YYY20NNNN                    YNNNNNNNNNNNNNN                                                                                                                                                                                                                                                                                                90NNNN                    YNNNNNNNNNNNNNN                                                                                                                                                                                                                                                                                                1N1202200707122008120511023402550N02000002200599999900000000220071001NNNNNNNNN000NNNNNNNNNNNNNNNNNNNNNNNN11NNNNNNN1234009008000208141234560NNNNNNNNNNNNNNNNNNNYYY        3842NNN                                                                                                                                                                                                                                                                                                                                                                                                                                                                                                                                                                                                                                                                                                                                                                                                                                                                                                                                                                                                                                                                                                                 1234567899876543213742                         123                         123                         058                         059AK        11      13                                                                                                                                                                                                                                                                                                                                                                                                                                                                                                                                                                                                                                Y1NN                                                                                                                                       1                                                  2008080120080810                                                  0 000208                             SD                                                                                                                                                                                                                                                                                                                                                                                                                                                                                                                                                                                                                                                                                                                                                                                                                                                                                                                                                                                
2016CT00010800000000000011342Mhhhh0349                200809180NY0100000111CTUSN196304230YYY20NNNN                    YNNNNNNNNNNNNNN                                                                                                                                                                                                                                                                                                90NNNN                    YNNNNNNNNNNNNNN                                                                                                                                                                                                                                                                                                1N1202200707122008120511023402550N02000002200599999900000000220071001NNNNNNNNN000NNNNNNNNNNNNNNNNNNNNNNNN11NNNNNNN1234009008000208141234560NNNNNNNNNNNNNNNNNNNYYY        3842NNN                                                                                                                                                                                                                                                                                                                                                                                                                                                                                                                                                                                                                                                                                                                                                                                                                                                                                                                                                                                                                                                                                                                 1234567899876543213742                         123                         123                         058                         059AK        11      13                                                                                                                                                                                                                                                                                                                                                                                                                                                                                                                                                                                                                                Y1NN                                                                                                                                       1                                                  2008080120080810                                                  0 000208                             NY                                                                                                                                                                                                                                                                                                                                                                                                                                                                                                                                                                                                                                                                                                                                                                                                                                                                                                                                                                                
2016NE00010800----------11342*1231)))*                200809180NY0100000111CTUSN196304230YYY20NNNN                    YNNNNNNNNNNNNNN                                                                                                                                                                                                                                                                                                90NNNN                    YNNNNNNNNNNNNNN                                                                                                                                                                                                                                                                                                1N1202200707122008120511023402550N02000002200599999900000000220071001NNNNNNNNN000NNNNNNNNNNNNNNNNNNNNNNNN11NNNNNNN1234009008000208141234560NNNNNNNNNNNNNNNNNNNYYY        3842NNN                                                                                                                                                                                                                                                                                                                                                                                                                                                                                                                                                                                                                                                                                                                                                                                                                                                                                                                                                                                                                                                                                                                 1234567899876543213742                         123                         123                         058                         059AK        11      13                                                                                                                                                                                                                                                                                                                                                                                                                                                                                                                                                                                                                                Y1NN                                                                                                                                       1                                                  2008080120080810                                                  0 000208                             SD                                                                                                                                                                                                                                                                                                                                                                                                                                                                                                                                                                                                                                                                                                                                                                                                                                                                                                                                                                                
2016CT00010800000000000011342Mhhhh0349                200809180NY0100000111CTUSN196304230YYY20NNNN                    YNNNNNNNNNNNNNN                                                                                                                                                                                                                                                                                                90NNNN                    YNNNNNNNNNNNNNN                                                                                                                                                                                                                                                                                                1N1202200707122008120511023402550N02000002200599999900000000220071001NNNNNNNNN000NNNNNNNNNNNNNNNNNNNNNNNN11NNNNNNN1234009008000208141234560NNNNNNNNNNNNNNNNNNNYYY        3842NNN                                                                                                                                                                                                                                                                                                                                                                                                                                                                                                                                                                                                                                                                                                                                                                                                                                                                                                                                                                                                                                                                                                                 1234567899876543213742                         123                         123                         058                         059AK        11      13                                                                                                                                                                                                                                                                                                                                                                                                                                                                                                                                                                                                                                Y1NN                                                                                                                                       1                                                  2008080120080810                                                  0 000208                             NY                                                                                                                                                                                                                                                                                                                                                                                                                                                                                                                                                                                                                                                                                                                                                                                                                                                                                                                                                                                
2016NE00010800----------11342*1231)))*                200809180NY0100000111CTUSN196304230YYY20NNNN                    YNNNNNNNNNNNNNN                                                                                                                                                                                                                                                                                                90NNNN                    YNNNNNNNNNNNNNN                                                                                                                                                                                                                                                                                                1N1202200707122008120511023402550N02000002200599999900000000220071001NNNNNNNNN000NNNNNNNNNNNNNNNNNNNNNNNN11NNNNNNN1234009008000208141234560NNNNNNNNNNNNNNNNNNNYYY        3842NNN                                                                                                                                                                                                                                                                                                                                                                                                                                                                                                                                                                                                                                                                                                                                                                                                                                                                                                                                                                                                                                                                                                                 1234567899876543213742                         123                         123                         058                         059AK        11      13                                                                                                                                                                                                                                                                                                                                                                                                                                                                                                                                                                                                                                Y1NN                                                                                                                                       1                                                  2008080120080810                                                  0 000208                             SD                                                                                                                                                                                                                                                                                                                                                                                                                                                                                                                                                                                                                                                                                                                                                                                                                                                                                                                                                                                
2016CT00010800000000000011342Mhhhh0349                200809180NY0100000111CTUSN196304230YYY20NNNN                    YNNNNNNNNNNNNNN                                                                                                                                                                                                                                                                                                90NNNN                    YNNNNNNNNNNNNNN                                                                                                                                                                                                                                                                                                1N1202200707122008120511023402550N02000002200599999900000000220071001NNNNNNNNN000NNNNNNNNNNNNNNNNNNNNNNNN11NNNNNNN1234009008000208141234560NNNNNNNNNNNNNNNNNNNYYY        3842NNN                                                                                                                                                                                                                                                                                                                                                                                                                                                                                                                                                                                                                                                                                                                                                                                                                                                                                                                                                                                                                                                                                                                 1234567899876543213742                         123                         123                         058                         059AK        11      13                                                                                                                                                                                                                                                                                                                                                                                                                                                                                                                                                                                                                                Y1NN                                                                                                                                       1                                                  2008080120080810                                                  0 000208                             NY                                                                                                                                                                                                                                                                                                                                                                                                                                                                                                                                                                                                                                                                                                                                                                                                                                                                                                                                                                                
2016NE00010800----------11342*1231)))*                200809180NY0100000111CTUSN196304230YYY20NNNN                    YNNNNNNNNNNNNNN                                                                                                                                                                                                                                                                                                90NNNN                    YNNNNNNNNNNNNNN                                                                                                                                                                                                                                                                                                1N1202200707122008120511023402550N02000002200599999900000000220071001NNNNNNNNN000NNNNNNNNNNNNNNNNNNNNNNNN11NNNNNNN1234009008000208141234560NNNNNNNNNNNNNNNNNNNYYY        3842NNN                                                                                                                                                                                                                                                                                                                                                                                                                                                                                                                                                                                                                                                                                                                                                                                                                                                                                                                                                                                                                                                                                                                 1234567899876543213742                         123                         123                         058                         059AK        11      13                                                                                                                                                                                                                                                                                                                                                                                                                                                                                                                                                                                                                                Y1NN                                                                                                                                       1                                                  2008080120080810                                                  0 000208                             SD                                                                                                                                                                                                                                                                                                                                                                                                                                                                                                                                                                                                                                                                                                                                                                                                                                                                                                                                                                                
2016CT00010800000000000011342Mhhhh0349                200809180NY0100000111CTUSN196304230YYY20NNNN                    YNNNNNNNNNNNNNN                                                                                                                                                                                                                                                                                                90NNNN                    YNNNNNNNNNNNNNN                                                                                                                                                                                                                                                                                                1N1202200707122008120511023402550N02000002200599999900000000220071001NNNNNNNNN000NNNNNNNNNNNNNNNNNNNNNNNN11NNNNNNN1234009008000208141234560NNNNNNNNNNNNNNNNNNNYYY        3842NNN                                                                                                                                                                                                                                                                                                                                                                                                                                                                                                                                                                                                                                                                                                                                                                                                                                                                                                                                                                                                                                                                                                                 1234567899876543213742                         123                         123                         058                         059AK        11      13                                                                                                                                                                                                                                                                                                                                                                                                                                                                                                                                                                                                                                Y1NN                                                                                                                                       1                                                  2008080120080810                                                  0 000208                             NY                                                                                                                                                                                                                                                                                                                                                                                                                                                                                                                                                                                                                                                                                                                                                                                                                                                                                                                                                                                
2016NE00010800----------11342*1231)))*                200809180NY0100000111CTUSN196304230YYY20NNNN                    YNNNNNNNNNNNNNN                                                                                                                                                                                                                                                                                                90NNNN                    YNNNNNNNNNNNNNN                                                                                                                                                                                                                                                                                                1N1202200707122008120511023402550N02000002200599999900000000220071001NNNNNNNNN000NNNNNNNNNNNNNNNNNNNNNNNN11NNNNNNN1234009008000208141234560NNNNNNNNNNNNNNNNNNNYYY        3842NNN                                                                                                                                                                                                                                                                                                                                                                                                                                                                                                                                                                                                                                                                                                                                                                                                                                                                                                                                                                                                                                                                                                                 1234567899876543213742                         123                         123                         058                         059AK        11      13                                                                                                                                                                                                                                                                                                                                                                                                                                                                                                                                                                                                                                Y1NN                                                                                                                                       1                                                  2008080120080810                                                  0 000208                             SD                                                                                                                                                                                                                                                                                                                                                                                                                                                                                                                                                                                                                                                                                                                                                                                                                                                                                                                                                                                
2016CT00010800000000000011342Mhhhh0349                200809180NY0100000111CTUSN196304230YYY20NNNN                    YNNNNNNNNNNNNNN                                                                                                                                                                                                                                                                                                90NNNN                    YNNNNNNNNNNNNNN                                                                                                                                                                                                                                                                                                1N1202200707122008120511023402550N02000002200599999900000000220071001NNNNNNNNN000NNNNNNNNNNNNNNNNNNNNNNNN11NNNNNNN1234009008000208141234560NNNNNNNNNNNNNNNNNNNYYY        3842NNN                                                                                                                                                                                                                                                                                                                                                                                                                                                                                                                                                                                                                                                                                                                                                                                                                                                                                                                                                                                                                                                                                                                 1234567899876543213742                         123                         123                         058                         059AK        11      13                                                                                                                                                                                                                                                                                                                                                                                                                                                                                                                                                                                                                                Y1NN                                                                                                                                       1                                                  2008080120080810                                                  0 000208                             NY                                                                                                                                                                                                                                                                                                                                                                                                                                                                                                                                                                                                                                                                                                                                                                                                                                                                                                                                                                                
2016NE00010800----------11342*1231)))*                200809180NY0100000111CTUSN196304230YYY20NNNN                    YNNNNNNNNNNNNNN                                                                                                                                                                                                                                                                                                90NNNN                    YNNNNNNNNNNNNNN                                                                                                                                                                                                                                                                                                1N1202200707122008120511023402550N02000002200599999900000000220071001NNNNNNNNN000NNNNNNNNNNNNNNNNNNNNNNNN11NNNNNNN1234009008000208141234560NNNNNNNNNNNNNNNNNNNYYY        3842NNN                                                                                                                                                                                                                                                                                                                                                                                                                                                                                                                                                                                                                                                                                                                                                                                                                                                                                                                                                                                                                                                                                                                 1234567899876543213742                         123                         123                         058                         059AK        11      13                                                                                                                                                                                                                                                                                                                                                                                                                                                                                                                                                                                                                                Y1NN                                                                                                                                       1                                                  2008080120080810                                                  0 000208                             SD                                                                                                                                                                                                                                                                                                                                                                                                                                                                                                                                                                                                                                                                                                                                                                                                                                                                                                                                                                                
2016CT00010800000000000011342Mhhhh0349                200809180NY0100000111CTUSN196304230YYY20NNNN                    YNNNNNNNNNNNNNN                                                                                                                                                                                                                                                                                                90NNNN                    YNNNNNNNNNNNNNN                                                                                                                                                                                                                                                                                                1N1202200707122008120511023402550N02000002200599999900000000220071001NNNNNNNNN000NNNNNNNNNNNNNNNNNNNNNNNN11NNNNNNN1234009008000208141234560NNNNNNNNNNNNNNNNNNNYYY        3842NNN                                                                                                                                                                                                                                                                                                                                                                                                                                                                                                                                                                                                                                                                                                                                                                                                                                                                                                                                                                                                                                                                                                                 1234567899876543213742                         123                         123                         058                         059AK        11      13                                                                                                                                                                                                                                                                                                                                                                                                                                                                                                                                                                                                                                Y1NN                                                                                                                                       1                                                  2008080120080810                                                  0 000208                             NY                                                                                                                                                                                                                                                                                                                                                                                                                                                                                                                                                                                                                                                                                                                                                                                                                                                                                                                                                                                
2016NE00010800----------11342*1231)))*                200809180NY0100000111CTUSN196304230YYY20NNNN                    YNNNNNNNNNNNNNN                                                                                                                                                                                                                                                                                                90NNNN                    YNNNNNNNNNNNNNN                                                                                                                                                                                                                                                                                                1N1202200707122008120511023402550N02000002200599999900000000220071001NNNNNNNNN000NNNNNNNNNNNNNNNNNNNNNNNN11NNNNNNN1234009008000208141234560NNNNNNNNNNNNNNNNNNNYYY        3842NNN                                                                                                                                                                                                                                                                                                                                                                                                                                                                                                                                                                                                                                                                                                                                                                                                                                                                                                                                                                                                                                                                                                                 1234567899876543213742                         123                         123                         058                         059AK        11      13                                                                                                                                                                                                                                                                                                                                                                                                                                                                                                                                                                                                                                Y1NN                                                                                                                                       1                                                  2008080120080810                                                  0 000208                             SD                                                                                                                                                                                                                                                                                                                                                                                                                                                                                                                                                                                                                                                                                                                                                                                                                                                                                                                                                                                
2016CT00010800000000000011342Mhhhh0349                200809180NY0100000111CTUSN196304230YYY20NNNN                    YNNNNNNNNNNNNNN                                                                                                                                                                                                                                                                                                90NNNN                    YNNNNNNNNNNNNNN                                                                                                                                                                                                                                                                                                1N1202200707122008120511023402550N02000002200599999900000000220071001NNNNNNNNN000NNNNNNNNNNNNNNNNNNNNNNNN11NNNNNNN1234009008000208141234560NNNNNNNNNNNNNNNNNNNYYY        3842NNN                                                                                                                                                                                                                                                                                                                                                                                                                                                                                                                                                                                                                                                                                                                                                                                                                                                                                                                                                                                                                                                                                                                 1234567899876543213742                         123                         123                         058                         059AK        11      13                                                                                                                                                                                                                                                                                                                                                                                                                                                                                                                                                                                                                                Y1NN                                                                                                                                       1                                                  2008080120080810                                                  0 000208                             NY                                                                                                                                                                                                                                                                                                                                                                                                                                                                                                                                                                                                                                                                                                                                                                                                                                                                                                                                                                                
2016NE00010800----------11342*1231)))*                200809180NY0100000111CTUSN196304230YYY20NNNN                    YNNNNNNNNNNNNNN                                                                                                                                                                                                                                                                                                90NNNN                    YNNNNNNNNNNNNNN                                                                                                                                                                                                                                                                                                1N1202200707122008120511023402550N02000002200599999900000000220071001NNNNNNNNN000NNNNNNNNNNNNNNNNNNNNNNNN11NNNNNNN1234009008000208141234560NNNNNNNNNNNNNNNNNNNYYY        3842NNN                                                                                                                                                                                                                                                                                                                                                                                                                                                                                                                                                                                                                                                                                                                                                                                                                                                                                                                                                                                                                                                                                                                 1234567899876543213742                         123                         123                         058                         059AK        11      13                                                                                                                                                                                                                                                                                                                                                                                                                                                                                                                                                                                                                                Y1NN                                                                                                                                       1                                                  2008080120080810                                                  0 000208                             SD                                                                                                                                                                                                                                                                                                                                                                                                                                                                                                                                                                                                                                                                                                                                                                                                                                                                                                                                                                                
2016CT00010800000000000011342Mhhhh0349                200809180NY0100000111CTUSN196304230YYY20NNNN                    YNNNNNNNNNNNNNN                                                                                                                                                                                                                                                                                                90NNNN                    YNNNNNNNNNNNNNN                                                                                                                                                                                                                                                                                                1N1202200707122008120511023402550N02000002200599999900000000220071001NNNNNNNNN000NNNNNNNNNNNNNNNNNNNNNNNN11NNNNNNN1234009008000208141234560NNNNNNNNNNNNNNNNNNNYYY        3842NNN                                                                                                                                                                                                                                                                                                                                                                                                                                                                                                                                                                                                                                                                                                                                                                                                                                                                                                                                                                                                                                                                                                                 1234567899876543213742                         123                         123                         058                         059AK        11      13                                                                                                                                                                                                                                                                                                                                                                                                                                                                                                                                                                                                                                Y1NN                                                                                                                                       1                                                  2008080120080810                                                  0 000208                             NY                                                                                                                                                                                                                                                                                                                                                                                                                                                                                                                                                                                                                                                                                                                                                                                                                                                                                                                                                                                
