2016FL0096290            1531F01150861            005 198008180XXPE45000086FLUSY198303100UNY40NNNHPERVIAN             NNNNNNNNNNNNNNY                                                                                                                                                                                    HISPANIC                                                                                                    30NNNHHONDURAN            NNNNNNNNNNNNNNY                                                                                                                                                                                    HISPANIC                                                                                                    1N0511201512182015100502015001680N01000109201406200700000000120150329NNNNNN NN000NN NNNNNNNNNNNYNNNNYNNNN11XNNNNNN3360039009880199990000000NNNNNNNNNNNNNNNNNNNNYY        9999NXX                 20160119                                                                                                                                                                                                                                                                                                                                                                                                                                                                                                                                                                                                                                                                                                                                                                                                                                                                                                                                                                                                                                                                                                                                                                                                                                                                                                                                                                                                                                                                                                                                                                                                                                                                                                                                                                                                                                                                                                                                                                                                                                                                                                                                                  1                                                                                                                                                                                                                                                                                                                                                                                                                                                                                                                                                                                                                                                                                                                                                                                                                                                                                                                                                                                                                      
2016FL0422230            0826M03110011            070 198806250NJUS00000075FLUSN199706120UNY40NNNN                    YNNNNNNNNNNNNNN                                                                                                                                                                                                                                                                                                90UUUU                    NNNNNNNNNNNNNNN                                                                                                                                                                                                                                                                                                1N0819201503032016090600019002070Y01000009201288888801202020120150612NNNNNN NN000NN NNNNNNNNNNNNNNYNNNNNN11XNNNNNN3175039009880199990000000NNNNNNNNNNNNNNNNNNNNYY        9999NXX                 20160312                                                                                                                                                                                                                                                                                                                                                                                                                                                                                                                                                                                                                                                                                                                                                                                                                                                                                                                                                                                                                                                                                                                                                                                                                                                                                                                                                                                                                                                                                                                                                                                                                                                                                                                                                                                                                                                                                                                                                                                                                                                                                                                                                  1                                                                                                                                                                                                                                                                                                                                                                                                                                                                                                                                                                                                                                                                                                                                                                                                                                                                                                                                                                                                                      
2016FL0473590            0126M03200861            036 198308170XXPK00000086FLUSN197012040UYX60NNNN                    YNNNNNNNNNNNNNN                                                                                                                                                                                                                                                                                                60NNNN                    YNNNNNNNNNNNNNN                                                                                                                                                                                                                                                                                                1N0815201503192016150505014401800N00000088888888888800000000220150706NNNNNN NN000NN NNNNNNNNNNNNNNNNNYYNN14NNNNNNN3827039009880199990000000NNNNNNNNNNNNNNNNNNNNYY        9999NXX                 20160321                                                                                                                                                                                                                                                                                                                                                                                                                                                                                                                                                                                                                                                                                                                                                                                                                                                                                                                                                                                                                                                                                                                                                                                                                                                                                                                                                                                                                                                                                                                                                                                                                                                                                                                                                                                                                                                                                                                                                                                                                                                                                                                                                  1                                                                                                                                                                                                                                                                                                                                                                                                                                                                                                                                                                                                                                                                                                                                                                                                                                                                                                                                                                                                                      
2016FL1069070            2316F06280951            036 197512080PRUS53000095FLUSY197509140UNY60NHNN                    NNNNNNNNNNNNNNY                                                                                                                                                                                    HISPANIC                                                                                                    90UUUU                    NNNNNNNNNNNNNNN                                                                                                                                                                                                                                                                                                1N1214201506202016100507099901740Y01000102199599201400000000199999999NNNNNN NN000NN NNNNNNNNNNNNNNNNNNYNN11XNNNNNN2750037008880199990000000NNNNNNNNNNNNNNNNNNNNYY        9999NXX                 20160630                                                                                                                                                                                                                                                                                                                                                                                                                                                                                                                                                                                                                                                                                                                                                                                                                                                                                                                                                                                                                                                                                                                                                                                                                                                                                                                                                                                                                                                                                                                                                                                                                                                                                                                                                                                                                                                                                                                                                                                                                                                                                                                                                  1                                                                                                                                                                                                                                                                                                                                                                                                                                                                                                                                                                                                                                                                                                                                                                                                                                                                                                                                                                                                                      
2016FL1145780            1343M07120861            005 199610140XXCU45000086FLUSY199010100UNY20NNHN                    NNNNNNNNNNNNNNY                                                                                                                                                                                    HISPANIC                                                                                                    30NNHN                    NNNNNNNNNNNNNNY                                                                                                                                                                                    HISPANIC                                                                                                    1N0215201607072016060500011501380Y00000088888888888800000000120151022NNNNNN NN000UU UUUNNNNNNNNYNNNNNNYNN11XNNNNNN3340037008880199990000000NNYNNNNNNNNNNNNNNNNNYY        9999NXX                 20160713                                                                                                                                                                                                                                                                                                                                                                                                                                                                                                                                                                                                                                                                                                                                                                                                                                                                                                                                                                                                                                                                                                                                                                                                                                                                                                                                                                                                                                                                                                                                                                                                                                                                                                                                                                                                                                                                                                                                                                                                                                                                                                                                                  1                                                                                                                                                                                                                                                                                                                                                                                                                                                                                                                                                                                                                                                                                                                                                                                                                                                                                                                                                                                                                      
2016FL1224590            1133F07250311            006 199002180FLUS35000031FLUSY198704210UNY30NNNN                    NYNNNNNNNNNNNNN                                                                                                                                                                                                                                                                                                90UUUU                    NNNNNNNNNNNNNNN                                                                                                                                                                                                                                                                                                1N0112201606282016080502012001500Y02000003201288888800000000120151026NNNNNN NN000NN NNNNNNNNNNNYNNNNNNYNN11XNNNNNN3010038009880199990000000NNNNNNNNNNNNNNNNNNNNYY        9999NXX                 20160725                                                                                                                                                                                                                                                                                                                                                                                                                                                                                                                                                                                                                                                                                                                                                                                                                                                                                                                                                                                                                                                                                                                                                                                                                                                                                                                                                                                                                                                                                                                                                                                                                                                                                                                                                                                                                                                                                                                                                                                                                                                                                                                                                  1                                                                                                                                                                                                                                                                                                                                                                                                                                                                                                                                                                                                                                                                                                                                                                                                                                                                                                                                                                                                                      
2016FL1333710            0549M08100951            065 199202110FLUS53000095FLUSY999999990UYX20NNNN                    NYNNNNNNNNNNNNN                                                                                                                                                                                                                                                                                                90UUUU                    NNNNNNNNNNNNNNN                                                                                                                                                                                                                                                                                                1N9999999908082016990509026002790Y02000005201288888800000000320151103NNNNNN NN000NN NNNNNNNNNNNYNNNNNNYNN11XNNNNNN4003039009880199990000000NNNNNNNNNNNNNNNNNNNNYY        9999NXX                 20160811                                                                                                                                                                                                                                                                                                                                                                                                                                                                                                                                                                                                                                                                                                                                                                                                                                                                                                                                                                                                                                                                                                                                                                                                                                                                                                                                                                                                                                                                                                                                                                                                                                                                                                                                                                                                                                                                                                                                                                                                                                                                                                                                                  1                                                                                                                                                                                                                                                                                                                                                                                                                                                                                                                                                                                                                                                                                                                                                                                                                                                                                                                                                                                                                      
2016FL1377070            0510F08170011            000 199311010FLUS77825075FLUSY999999990UNY40NNNN                    YNNNNNNNNNNNNNN                                                                                                                                                                                                                                                                                                90UUUU                    NNNNNNNNNNNNNNN                                                                                                                                                                                                                                                                                                1N0115201608122016110504014301730Y01000003201588888800000000299999999NNNNNN NN000NN NNNNNNNNNNNNNNNNNNNNN11XNNNNNN3386039009880199990000000NNNNNNNNNNNNNNNNNNNNYY        9999NXX                 20160818                                                                                                                                                                                                                                                                                                                                                                                                                                                                                                                                                                                                                                                                                                                                                                                                                                                                                                                                                                                                                                                                                                                                                                                                                                                                                                                                                                                                                                                                                                                                                                                                                                                                                                                                                                                                                                                                                                                                                                                                                                                                                                                                                  1                                                                                                                                                                                                                                                                                                                                                                                                                                                                                                                                                                                                                                                                                                                                                                                                                                                                                                                                                                                                                      
2016FL1450350            1333F08290991            068 198307290ALUS76600099FLUSY198010260UNY30NNNN                    YNNNNNNNNNNNNNN                                                                                                                                                                                                                                                                                                90UUUU                    NNNNNNNNNNNNNNN                                                                                                                                                                                                                                                                                                1N9999999999999999990504021402300N02000103201302201005050505120151212NNNNNN NN000NN NNNNNNNNNNNNNNNNNNYNN14NNNNNNN3119039008880199990000000NNYNNNNNNNNNNNNNNNNNYN        9999NXX                 20160830                                                                                                                                                                                                                                                                                                                                                                                                                                                                                                                                                                                                                                                                                                                                                                                                                                                                                                                                                                                                                                                                                                                                                                                                                                                                                                                                                                                                                                                                                                                                                                                                                                                                                                                                                                                                                                                                                                                                                                                                                                                                                                                                                  1                                                                                                                                                                                                                                                                                                                                                                                                                                                                                                                                                                                                                                                                                                                                                                                                                                                                                                                                                                                                                      
2016FL1513370            0125M09071051            005 198907080FLUS38250105FLUSY199209120UNY40NNNN                    NYNNNNNNNNNNNNN                                                                                                                                                                                                                                                                                                90UUUU                    NNNNNNNNNNNNNNN                                                                                                                                                                                                                                                                                                1N0226201608022016100507028603010Y03000004201488888800000000120151203NNNNNN NN000NN NNNNNNNNNNNNNNNNNNNNN11XNNNNNN3289039009880199990000000NNNNNNNNNNNNNNNNNNNNYY        9999NXX                 20160909                                                                                                                                                                                                                                                                                                                                                                                                                                                                                                                                                                                                                                                                                                                                                                                                                                                                                                                                                                                                                                                                                                                                                                                                                                                                                                                                                                                                                                                                                                                                                                                                                                                                                                                                                                                                                                                                                                                                                                                                                                                                                                                                                  1                                                                                                                                                                                                                                                                                                                                                                                                                                                                                                                                                                                                                                                                                                                                                                                                                                                                                                                                                                                                                      
2016FL1579290            2015F09160111            006 198111230XXDR45000086FLUSY999999990UYX30NNNHDOMINICIAN          YNNNNNNNNNNNNNN                                                                                                                                                                                                                                                                                                90UUUU                    NNNNNNNNNNNNNNN                                                                                                                                                                                                                                                                                                1N8888888888888888000504014001600N05000310201502200200000000120160518NNNNNN NN000NN NNNNNNNNNNNNNNNNNNYNN11XNNNNNN0450022001010199990000000NNNNNNNNNNNNNNNNNNNNNN        9999NXX                 20160919                                                                                                                                                                                                                                                                                                                                                                                                                                                                                                                                                                                                                                                                                                                                                                                                                                                                                                                                                                                                                                                                                                                                                                                                                                                                                                                                                                                                                                                                                                                                                                                                                                                                                                                                                                                                                                                                                                                                                                                                                                                                                                                                                  1                                                                                                                                                                                                                                                                                                                                                                                                                                                                                                                                                                                                                                                                                                                                                                                                                                                                                                                                                                                                                      
2016FL1675040            1000F10020331            038 199506280FLUS00000033FLUSN199410280UYX30NNNN                    YNNNNNNNNNNNNNN                                                                                                                                                                                                                                                                                                50NNNN                    NYNNNNNNNNNNNNN                                                                                                                                                                                                                                                                                                1N0617201606212016020502014502100Y03000011201588888800000000199999999NNNNNN NN000NN NNNNNNNNNNNYNNNNNNYNN11XNNNNNN3130037009880199990000000NNNNNNNNNNNNNNNNNNNNYN        9999NXX                 20161003                                                                                                                                                                                                                                                                                                                                                                                                                                                                                                                                                                                                                                                                                                                                                                                                                                                                                                                                                                                                                                                                                                                                                                                                                                                                                                                                                                                                                                                                                                                                                                                                                                                                                                                                                                                                                                                                                                                                                                                                                                                                                                                                                  1                                                                                                                                                                                                                                                                                                                                                                                                                                                                                                                                                                                                                                                                                                                                                                                                                                                                                                                                                                                                                      
2016FL1793480            1223M10200111            030 198903100FLUS45975011FLUSY198706210UNY30NNHN                    YNNNNNNNNNNNNNN                                                                                                                                                                                                                                                                                                20NNHN                    YNNNNNNNNNNNNNN                                                                                                                                                                                                                                                                                                1N0721201610182016060502013401840N00000388888899999900000000120160117NNNNNN NN000NN NNNNNNNNNNYNNNNNNNYNN11XNNNNNN3317039007880199990000000NNNNNNNNNNNNNNNNNNNNYN        9999NXX                 20161022                                                                                                                                                                                                                                                                                                                                                                                                                                                                                                                                                                                                                                                                                                                                                                                                                                                                                                                                                                                                                                                                                                                                                                                                                                                                                                                                                                                                                                                                                                                                                                                                                                                                                                                                                                                                                                                                                                                                                                                                                                                                                                                                                  1                                                                                                                                                                                                                                                                                                                                                                                                                                                                                                                                                                                                                                                                                                                                                                                                                                                                                                                                                                                                                      
2016FL1799760            2255M10200331            038 198906100FLUS00000033FLUSN198502060UNY50NNNN                    NYNNNNNNNNNNNNN                                                                                                                                                                                                                                                                                                30NNNN                    NYNNNNNNNNNNNNN                                                                                                                                                                                                                                                                                                1N0629201610992016070505024102600N00000088888888888800000000299999999NNNNNN NN000NN NNNNNNNYNYNYNNYNNNYNN14NNNNNNN2948037009880199990000000NNNNNNNNNNNNNNNNNNNNYY        9999NXX                 20161023                                                                                                                                                                                                                                                                                                                                                                                                                                                                                                                                                                                                                                                                                                                                                                                                                                                                                                                                                                                                                                                                                                                                                                                                                                                                                                                                                                                                                                                                                                                                                                                                                                                                                                                                                                                                                                                                                                                                                                                                                                                                                                                                                  1                                                                                                                                                                                                                                                                                                                                                                                                                                                                                                                                                                                                                                                                                                                                                                                                                                                                                                                                                                                                                      
2016FL1860010            2330M11010311            006 199401110PRUS35000031FLUSY999999990UNN30NHNN                    NNNNNNNNNNNNNNY                                                                                                                                                                                    HISPANIC                                                                                                    90UUUU                    NNNNNNNNNNNNNNN                                                                                                                                                                                                                                                                                                1N1004201610272016030505016001700Y00000088888888888800000000120160211NNNNNN NN000NN NNNNNNNNNNNNNNNNYNYNN11XNNNNNN2750038009880199990000000NNNNNNNNNNNNNNNNNNNNYY        9999NXX                 20161102                                                                                                                                                                                                                                                                                                                                                                                                                                                                                                                                                                                                                                                                                                                                                                                                                                                                                                                                                                                                                                                                                                                                                                                                                                                                                                                                                                                                                                                                                                                                                                                                                                                                                                                                                                                                                                                                                                                                                                                                                                                                                                                                                  1                                                                                                                                                                                                                                                                                                                                                                                                                                                                                                                                                                                                                                                                                                                                                                                                                                                                                                                                                                                                                      
2016FL1898060            0845M11040951            050 198502160XXVE53000095FLUSY198603260UYX30NHNN                    YNNNNNNNNNNNNNN                                                                                                                                                                                                                                                                                                30NHNN                    YNNNNNNNNNNNNNN                                                                                                                                                                                                                                                                                                1N0209201610182016990999099909990N01000099201288888800000000299999999NNNNNN NY010NN NNNNNNNNNNNNNNNNNNYNN14NNNNNNN3544038008880199990000000NNNNNNNNNNNNNNNNNNNNYY        9999NXX                 20161107                                                                                                                                                                                                                                                                                                                                                                                                                                                                                                                                                                                                                                                                                                                                                                                                                                                                                                                                                                                                                                                                                                                                                                                                                                                                                                                                                                                                                                                                                                                                                                                                                                                                                                                                                                                                                                                                                                                                                                                                                                                                                                                                                  1                                                                                                                                                                                                                                                                                                                                                                                                                                                                                                                                                                                                                                                                                                                                                                                                                                                                                                                                                                                                                      
2016FL1941800            2012M11130631            006 198006150XXGT99999131FLUSY197812250UYX10NNNHGUATEMALA           NNNNNNNNNNNNNNY                                                                                                                                                                                    HISPANIC                                                                                                    10NNNHGUATEMALA           NNNNNNNNNNNNNNY                                                                                                                                                                                    HISPANIC                                                                                                    1N0320201611082016120500012501400N06000107201501201100000000320160220NNNNNN NN000NN NNNNNNNNNNNNNNYNNNNNN11XNNNNNN2778038009880199990000000NNNNNNNNNNNNNNNNNNNNYN        9999NXX                 20161114                                                                                                                                                                                                                                                                                                                                                                                                                                                                                                                                                                                                                                                                                                                                                                                                                                                                                                                                                                                                                                                                                                                                                                                                                                                                                                                                                                                                                                                                                                                                                                                                                                                                                                                                                                                                                                                                                                                                                                                                                                                                                                                                                  1                                                                                                                                                                                                                                                                                                                                                                                                                                                                                                                                                                                                                                                                                                                                                                                                                                                                                                                                                                                                                      
2016FL1949980            2051F11130731            004 198711300XXNI35000031FLUSY197907160UYX60NNNN                    NYNNNNNNNNNNNNN                                                                                                                                                                                                                                                                                                60NNNN                    NYNNNNNNNNNNNNN                                                                                                                                                                                                                                                                                                1N9999999999999999990602023002500Y00000088888888888800000000199999999NNNNNN NN000NN NNNNNNNNNNNNNNNNYNYNN14YNNNNNN3170039009880199990000000NNNNNNNNNNNNNNNNNNNNYY        9999NXX                 20161115                                                                                                                                                                                                                                                                                                                                                                                                                                                                                                                                                                                                                                                                                                                                                                                                                                                                                                                                                                                                                                                                                                                                                                                                                                                                                                                                                                                                                                                                                                                                                                                                                                                                                                                                                                                                                                                                                                                                                                                                                                                                                                                                                  1                                                                                                                                                                                                                                                                                                                                                                                                                                                                                                                                                                                                                                                                                                                                                                                                                                                                                                                                                                                                                      
2016FL1984520            0816F11210311            050 198111110XXNI35000031FLUSY197602120UYX70NNNN                    NYNNNNNNNNNNNNN                                                                                                                                                                                                                                                                                                60NNNN                    NYNNNNNNNNNNNNN                                                                                                                                                                                                                                                                                                1N0608201610262016110508099903200N01000211201499201500000000120160304NYNYNN NY010NN NNNNNNNNNNNNNNNNNNNNN14NNNNNNN3940037008880199990000000NNNNNNNNNNNNNNNNNNNNYY        9999NXX                 20161121                                                                                                                                                                                                                                                                                                                                                                                                                                                                                                                                                                                                                                                                                                                                                                                                                                                                                                                                                                                                                                                                                                                                                                                                                                                                                                                                                                                                                                                                                                                                                                                                                                                                                                                                                                                                                                                                                                                                                                                                                                                                                                                                                  1                                                                                                                                                                                                                                                                                                                                                                                                                                                                                                                                                                                                                                                                                                                                                                                                                                                                                                                                                                                                                      
2016FL1999130            0959M11211031            048 198412150ORUS60410007ARUSY197804020UYX70NNNN                    YNNNNNNNNNNNNNN                                                                                                                                                                                                                                                                                                60NNNN                    YNNNNNNNNNNNNNN                                                                                                                                                                                                                                                                                                1N0427201611092016100504011801440N00000088888888888800000000220160227NNNNNN NN000NN NNNNNNNNNNNNNNNNNNYNN14NNNNNNN2637038009880199990000000NNYNNNNNNNNNNNNNNNNYYY        9999NXX                 20161123                                                 JOSHUA                                            ROBERT                                            KLEI                                                     PINELLAS                 ST PETERSBURG                                     BAYFRONT HEALTH ST PETERSBURG                     KRISTEN                                           ANNE                                              KLEI                                                                                                                                                         ZIEMINSKI                                                                                                                           4707 WILLOW RIDGE WAY                             72758    BENTON                      ROGERS                      ARKANSAS                    UNITED STATES               MICHAEL                                           ANTHONY                                           KLEI                                                                       3138                                                                                                                FLUS                                                                                                                                                                                                    ALL CHILDRENS HOSPITAL                                                OREGON                      UNITED STATES               FLORIDA                     UNITED STATES                                                                                          4061 PALAU DRIVE                                  34241                                SARASOTA                    FLORIDA                     UNITED STATES                1             PRIETO, JOSE                                                                                                                6                                                  2016112320161123                                                  1                                                                                                                                                                                                                                                                                                                                                                                                                                                                                                                                                                                                                                                                                                                                                                                                                                                                                                                                                                                                                      
2016FL2031070            1407M11280311            036 199307280PAUS35000031FLUSY199006020UNY40NNNN                    NYNNNNNNNNNNNNY                                                                                                                                                                                    HAITIAN                                                                                                     30NNNN                    NYNNNNNNNNNNNNN                                                                                                                                                                                                                                                                                                1N0927201611152016070505022002500Y02000012201588888800000000120160605NNNNNN NN000NN NNNNNNNNNNNNNNNNNNNNN14NNNNNNN0860024008880199990000000NNYNNNNNNNNNNNNNNNNNYY        9999NXX                 20161129                                                                                                                                                                                                                                                                                                                                                                                                                                                                                                                                                                                                                                                                                                                                                                                                                                                                                                                                                                                                                                                                                                                                                                                                                                                                                                                                                                                                                                                                                                                                                                                                                                                                                                                                                                                                                                                                                                                                                                                                                                                                                                                                                  1                                                                                                                                                                                                                                                                                                                                                                                                                                                                                                                                                                                                                                                                                                                                                                                                                                                                                                                                                                                                                      
2016FL2035770            0419M11300311            048 198007310FLUS35000031FLUSY197908310UYX50NNNN                    NYNNNNNNNNNNNNN                                                                                                                                                                                                                                                                                                30NNNN                    NYNNNNNNNNNNNNN                                                                                                                                                                                                                                                                                                1N0415201611282016120504021202420N01000306200999999900000000299999999NNNNNN NN000NN NNNNNNNNNNNNNNNNNNYNN11XNNNNNN3686041009880199990000000NNNNNNNNNNNNNNNNNNNNYY        9999NXX                 20161130                                                                                                                                                                                                                                                                                                                                                                                                                                                                                                                                                                                                                                                                                                                                                                                                                                                                                                                                                                                                                                                                                                                                                                                                                                                                                                                                                                                                                                                                                                                                                                                                                                                                                                                                                                                                                                                                                                                                                                                                                                                                                                                                                  1                                                                                                                                                                                                                                                                                                                                                                                                                                                                                                                                                                                                                                                                                                                                                                                                                                                                                                                                                                                                                      
2016FL2038460            1324M11290991            046 197908110XXCH17100099FLUSY197610160UYX50NNNN                    NNNNYNNNNNNNNNN                                                                                                                                                                                                                                                                                                60NNNN                    NNNNYNNNNNNNNNN                                                                                                                                                                                                                                                                                                1N0824201611222016070508006210810N01000010200888888800000000399999999NNNNNN NN000NN NNNNNNNNNNNNNNNNNNYNN11XNNNNNN3175038009880199990000000NNNNNNNNNNNNNNNNNNNNYY        9999NXX                 20161130                                                                                                                                                                                                                                                                                                                                                                                                                                                                                                                                                                                                                                                                                                                                                                                                                                                                                                                                                                                                                                                                                                                                                                                                                                                                                                                                                                                                                                                                                                                                                                                                                                                                                                                                                                                                                                                                                                                                                                                                                                                                                                                                                  1                                                                                                                                                                                                                                                                                                                                                                                                                                                                                                                                                                                                                                                                                                                                                                                                                                                                                                                                                                                                                      
2016FL2108210            1157M12080111            005 198709060FLUS69700011FLUSY198701070UYX70HNNN                    NNNNNNNNNNNNNNY                                                                                                                                                                                    HISPANIC                                                                                                    20HNNN                    NNNNNNNNNNNNNNY                                                                                                                                                                                    HISPANIC                                                                                                    1N9999999912022016060505019602060N01000012201188888800000000220160516NNNNNN NN000NN NNNNNNNYNNNNNYYNNNNNN21XNNNNNN1219028008880199990000000NNYNNNNNNNNNNNNNNNNNYN        9999NXX                 20161211                                                                                                                                                                                                                                                                                                                                                                                                                                                                                                                                                                                                                                                                                                                                                                                                                                                                                                                                                                                                                                                                                                                                                                                                                                                                                                                                                                                                                                                                                                                                                                                                                                                                                                                                                                                                                                                                                                                                                                                                                                                                                                                                                  1                                                                                                                                                                                                                                                                                                                                                                                                                                                                                                                                                                                                                                                                                                                                                                                                                                                                                                                                                                                                                      
