2015ID0000010            0321F01010691            0128198808230IDUS46540069IDUSY198701270UYX50NNNN                    YNNNNNNNNNNNNNN                                                                                                                                                                                                                                                                                                40NNNN                    YNNNNNNNNNNNNNN                                                                                                                                                                                                                                                                                                1N1006201412312014080505016302030N02000008201388888800000000220140311NNNNNNNNN000NNNNNNNNNNNYNNNNNNNNNNNN11XNNNNNN3742040009880199990000000NNNNNNNNNNNNNNNNNNNNYY        9999NXX                 20150105                                                 GEORGE                                            NATE                                              SMITHSON                                          JR.    NEZ PERCE                LEWISTON                                          ST. JOSEPH REGIONAL MEDICAL CENTER                SALLY                                             JANE                                              JONES                                                    BAKER                                             FRIEDA                                            SMYTHE                                                                                                                              2412 9TH AVENUE                                   83501    NEZ PERCE                   LEWISTON                    IDAHO                       U.S.                        JACK                                              ANDY                                              ARNEZ                                                    2222222224444444442627                                                                                                                IDUS   10001   10001                                                                                                                                                                                                                                                          IDAHO                                                   IDAHO                                                                                                                              2412 9TH AVENUE                                   83501                                LEWISTON                    IDAHO                                                   Y1N                                                                          BERG, SARA A.                                                 1                                                          20150105                                                  1                                                                                                                                                                                                                                                                                                                                                                                                                                                                                                                                                                                                                                                                                                                                                                                                                                                                                                                                                                                                                      
2015ID0000020            1525M01020691            0128198807280IDUS46540069IDUSY198306160UYX40NNNN                    YNNNNNNNNNNNNNN                                                                                                                                                                                                                                                                                                40NNNN                    YNNNNNNNNNNNNNN                                                                                                                                                                                                                                                                                                1N0710201412312014120509017002190N02000105201311200900000000520140325NNNNNNNNN000NNNNNNNNNNNNNNNNNNNNNNNN11XNNNNNN3827040009880199990000000NNNNNNNNNNNNNNNNNNNNYY        9999NXX                 20150105                                                 GEORGE                                            NATE                                              SMITHSON                                          JR.    NEZ PERCE                LEWISTON                                          ST. JOSEPH REGIONAL MEDICAL CENTER                SALLY                                             JANE                                              JONES                                                    BAKER                                             FRIEDA                                            SMYTHE                                                                                                                              1108 15TH AVENUE                                  83501    NEZ PERCE                   LEWISTON                    IDAHO                       U.S.                        JACK                                              ANDY                                              ARNEZ                                                    2222222224444444442631                                                                                                                KSUS   10001   10001                                                                                                                                                                                                                                                          IDAHO                                                   KANSAS                                                                                                                             1108 15TH AVENUE                                  83501                                LEWISTON                    IDAHO                                                   Y1N                                                                          BERG, SARA A.                                                 1                                                          20150105                                                  1                                                                                                                                                                                                                                                                                                                                                                                                                                                                                                                                                                                                                                                                                                                                                                                                                                                                                                                                                                                                                      
2015ID0000030            1247F01020691            0128199006010IDUS00000069IDUSN198910050UYX40NNNN                    YNNNNNNNNNNNNNN                                                                                                                                                                                                                                                                                                30NNNN                    YNNNNNNNNNNNNNN                                                                                                                                                                                                                                                                                                1N0501201412312014110509021602300N00000088888888888800000000220140203NNNNNNNNN000NNNNNNNNNNNNNNNNNNNNNYNN11XNNNNNN3104040007880199990000000NNYNNNNNNNNNNNNNNNNNYY        9999NXX                 20150105                                                 GEORGE                                            NATE                                              SMITHSON                                          JR.    NEZ PERCE                LEWISTON                                          ST. JOSEPH REGIONAL MEDICAL CENTER                SALLY                                             JANE                                              JONES                                                    BAKER                                             FRIEDA                                            SMYTHE                                                                                                                              30158 LUPINE LANE                                 83540    NEZ PERCE                   LAPWAI                      IDAHO                       U.S.                        JACK                                              ANDY                                              ARNEZ                                                    2222222224444444442425                                                                                                                IDUS   10001   10001                                                                                                                                                                                                                                                          IDAHO                                                   IDAHO                                                                                                                              30158 LUPINE LANE                                 83540                                LAPWAI                      IDAHO                                                   Y1N                                                                          BERG, SARA A.                                                 1                                                          20150105                                                  1                                                                                                                                                                                                                                                                                                                                                                                                                                                                                                                                                                                                                                                                                                                                                                                                                                                                                                                                                                                                                      
2015ID0000040            1245F01010011            0120199002050ORUS52660027IDUSY198904170UYX40NNNN                    YNNNNNNNNNNNNNN                                                                                                                                                                                                                                                                                                40NNNN                    YNNNNNNNNNNNNNN                                                                                                                                                                                                                                                                                                1N0520201412262014110501012401620N00000088888888888800000000220140310NNNNNNNNN000NNNNNNNNNNYNNNNNNNNNNYNN11XNNNNNN3188040009880199990000000NNNNNNNNNNNNNNNNNNNNYY        9999NXX                 20150105                                                 GEORGE                                            NATE                                              SMITHSON                                          JR.    ADA                      MERIDIAN                                          ST. LUKE'S MERIDIAN MEDICAL CENTER                SALLY                                             JANE                                              JONES                                                    BAKER                                             FRIEDA                                            SMYTHE                                                                                                                              685 FAIRHAVEN RD                                  83644    CANYON                      MIDDLETON                   IDAHO                       U.S.                        JACK                                              ANDY                                              ARNEZ                                                    2222222224444444442425                                                                                                                IDUS   10001   10001                                                                                                                                                                                                                                                          OREGON                                                  IDAHO                                                                                                                              685 FAIRHAVEN RD                                  83644                                MIDDLETON                   IDAHO                                                   Y1N                                                                          PARSONS, LEE W.                                               1                                                          20150105                                                  1                                                                                                                                                                                                                                                                                                                                                                                                                                                                                                                                                                                                                                                                                                                                                                                                                                                                                                                                                                                                                      
2015ID0000050            0320F01010011            0120198701220WAUS60940027IDUSY199008150UYX50NNNN                    NYNNNNNNNNNNNNN                                                                                                                                                                                                                                                                                                40NNNN                    YNNNNNNNNNNNNNN                                                                                                                                                                                                                                                                                                1N0520201412292014090510026503050N00000088888888888800000000220140310NNNNNNNNN000NNNNNNNNNNNNNNNNNNNNNNNN11XNNNNNN3625040009880199990000000NNNNNNNNNNNNNNNNNNNNYY        9999NXX                 20150105                                                 GEORGE                                            NATE                                              SMITHSON                                          JR.    ADA                      MERIDIAN                                          ST. LUKE'S MERIDIAN MEDICAL CENTER                SALLY                                             JANE                                              JONES                                                    BAKER                                             FRIEDA                                            SMYTHE                                                                                                                              107 N. 6TH ST                                     83660    CANYON                      PARMA                       IDAHO                       U.S.                        JACK                                              ANDY                                              ARNEZ                                                    2222222224444444442724                                                                                                                IDUS   10002   10001                                                                                                                                                                                                                                                          WASHINGTON                                              IDAHO                                                                                                                              PO BOX 822                                        83660                                PARMA                       IDAHO                                                   Y1N                                                                          DIMICHELE, ANDREA                                             1                                                          20150105                                                  1                                                                                                                                                                                                                                                                                                                                                                                                                                                                                                                                                                                                                                                                                                                                                                                                                                                                                                                                                                                                                      
2015ID0000060            1250M01030691            0128198606190WAUS54550057IDUSY198409240UYX40NNNN                    YNNNNNNNNNNNNNN                                                                                                                                                                                                                                                                                                40NNNN                    YNNNNNNNNNNNNNN                                                                                                                                                                                                                                                                                                1N0611201412232014110503018502220N03000008201288888800000000220140405NNNNNNNNN000NNYNNNNNNNNNNNNNNYNNNYNN11XNNNNNN3595039009880199990000000NNNNNNNNNNNNNNNNNNNNYY        9999NXX                 20150105                                                 GEORGE                                            NATE                                              SMITHSON                                          JR.    NEZ PERCE                LEWISTON                                          ST. JOSEPH REGIONAL MEDICAL CENTER                SALLY                                             JANE                                              JONES                                                    BAKER                                             FRIEDA                                            SMYTHE                                                                                                                              2615 EAST WHITE AVENUE                            83843    LATAH                       MOSCOW                      IDAHO                       U.S.                        JACK                                              ANDY                                              ARNEZ                                                    2222222224444444442830                                                                                                                WAUS   10001   10001                                                                                                                                                                                                                                                          WASHINGTON                                              WASHINGTON                                                                                                                         2615 EAST WHITE AVENUE                            83843                                MOSCOW                      IDAHO                                                   Y1N                                                                          BERG, SARA A.                                                 1                                                          20150105                                                  1                                                                                                                                                                                                                                                                                                                                                                                                                                                                                                                                                                                                                                                                                                                                                                                                                                                                                                                                                                                                                      
2015ID0000070            1049F01010011            0120198612180IDUS08830001IDUSY999999990UNN30NNNN                    YNNNNNNNNNNNNNN                                                                                                                                                                                                                                                                                                90UUUU                    NNNNNNNNNNNNNNN                                                                                                                                                                                                                                                                                                1N0811201412292014100500012001410Y01000010200788888800000000120140507NNNNNNNNN000NNNNNNNNNNNNNYNNNNNNNYNN11XNNNNNN1676034001990199990000000NNNNNNNYNNNNNNNNNNNNNN        9999NXX                 20150105                                                 GEORGE                                            NATE                                              SMITHSON                                          JR.    ADA                      MERIDIAN                                          ST. LUKE'S MERIDIAN MEDICAL CENTER                SALLY                                             JANE                                              JONES                                                    BAKER                                             FRIEDA                                            SMYTHE                                                                                                                              6602 IRONWOOD DR                                  83709    ADA                         BOISE                       IDAHO                       U.S.                        JACK                                              ANDY                                              ARNEZ                                                    2222222224444444442899                                                                                                                ZZZZ   10001   99899                                                                                                                                                                                                                                                          IDAHO                                                                               UNKNOWN COUNTRY                                                                                        6602 IRONWOOD DR                                  83709                                BOISE                       IDAHO                                                   N1N                                                                          PARSONS, LEE W.                                               1                                                          20150105                                                  1                                                                                                                                                                                                                                                                                                                                                                                                                                                                                                                                                                                                                                                                                                                                                                                                                                                                                                                                                                                                                      
2015ID0000080            1225M01020011            0120198609160AZUS52120001IDUSY197105250UYX30NNNN                    YNNNNNNNNNNNNNN                                                                                                                                                                                                                                                                                                40NNNN                    YNNNNNNNNNNNNNN                                                                                                                                                                                                                                                                                                1N0530201412312014130506014001700N01000003201388888800000000520140328NNNNNNNNY010NNNNNNNNNNNNNNNNNNNNNYNN14NNNNNNN3517039009880199990000000NNNNNNNNNNNNNNNNNNNNYY        9999NXX                 20150105                                                 GEORGE                                            NATE                                              SMITHSON                                          JR.    ADA                      MERIDIAN                                          ST. LUKE'S MERIDIAN MEDICAL CENTER                SALLY                                             JANE                                              JONES                                                    BAKER                                             FRIEDA                                            SMYTHE                                                                                                                              454 W BRODERICK DR                                83646    ADA                         MERIDIAN                    IDAHO                       U.S.                        JACK                                              ANDY                                              ARNEZ                                                    2222222224444444442843                                                                                                                TXUS   10001   10001                                                                                                                                                                                                                                                          ARIZONA                                                 TEXAS                                                                                                                              454 W BRODERICK DR                                83646                                MERIDIAN                    IDAHO                                                   Y1N                                                                          KOPPERUD, TRACEY                                              1                                                          20150105                                                  1                                                                                                                                                                                                                                                                                                                                                                                                                                                                                                                                                                                                                                                                                                                                                                                                                                                                                                                                                                                                                      
2015ID0000090            1629F01030011            0120198411160COUS08830001IDUSY198202190UYX40NNNN                    YNNNNNNNNNNNNNN                                                                                                                                                                                                                                                                                                40NNNN                    YNNNNNNNNNNNNNN                                                                                                                                                                                                                                                                                                1N0604201412302014160502011701600N04000003201288888810000000120140408NNNNNNNNY010NNNNNNNNNNNNNYNNNNNNYYNN11XNNNNNN2338038009880199990000000NNNNNNNNNNNNNNNNNNNNYY        9999NXX                 20150105                                                 GEORGE                                            NATE                                              SMITHSON                                          JR.    ADA                      MERIDIAN                                          ST. LUKE'S MERIDIAN MEDICAL CENTER                SALLY                                             JANE                                              JONES                                                    BAKER                                             FRIEDA                                            SMYTHE                                                                                                                              6760 POPLAR ST                                    83704    ADA                         BOISE                       IDAHO                       U.S.                        JACK                                              ANDY                                              ARNEZ                                                    2222222224444444443032                                                                                                                CAUS   10001   10001                                                                                                                                                                                                                                                          COLORADO                                                CALIFORNIA                                                                                                                         6760 POPLAR ST                                    83704                                BOISE                       IDAHO                                                   Y1N                                                                          YOU, PHYLLIS J.                                               1                                                          20150105                                                  1                                                                                                                                                                                                                                                                                                                                                                                                                                                                                                                                                                                                                                                                                                                                                                                                                                                                                                                                                                                                                      
2015ID0000100            1009F01010011            0002198802120OHUS08830001IDUSY198708310UYX40NNNN                    YNNNNNNNNNNNNNN                                                                                                                                                                                                                                                                                                30NNNN                    YNNNNNNNNNNNNNN                                                                                                                                                                                                                                                                                                1N0513201412302014150504019002160N00000088888888888800000000220140320NNNNNNNNN000NNNNNNNNNNNNNNNNNNNNNYNN11XNNNNNN2648040009880199990000000NNYNNNNNNNNNNNNNNNNNYY        9999NXX                 20150105                                                 GEORGE                                            NATE                                              SMITHSON                                          JR.    ADA                      BOISE                                             ST. LUKE'S REGIONAL MEDICAL CENTER                SALLY                                             JANE                                              JONES                                                    BAKER                                             FRIEDA                                            SMYTHE                                                                                                                              2528 N. GRANDEE STREET                            83704    ADA                         BOISE                       IDAHO                       U.S.                        JACK                                              ANDY                                              ARNEZ                                                    2222222224444444442627                                                                                                                IDUS   10001   10001                                                                                                                                                                                                                                                          OHIO                                                    IDAHO                                                                                                                              2528 N. GRANDEE STREET                            83704                                BOISE                       IDAHO                                                   Y1N                                                                          RICE, SUZANNE R.                                              1                                                          20150105                                                  1                                                                                                                                                                                                                                                                                                                                                                                                                                                                                                                                                                                                                                                                                                                                                                                                                                                                                                                                                                                                                      
2015ID0000110            0245M01010011            0002197807060IDUS08830001IDUSY197511250UYX60NNNN                    YNNNNNNNNNNNNNN                                                                                                                                                                                                                                                                                                30NNNN                    YNNNNNNNNNNNNNN                                                                                                                                                                                                                                                                                                1N0710201412232014100508014001670N00000088888888888810000000220140320NNNNNNNNN000NNNNNNNNNNNNNYNNNYNNYYNN14YNNNNNN4108041008880199990000000NNNNNNNNNNNNNNNNNNNNYY        9999NXX                 20150105                                                 GEORGE                                            NATE                                              SMITHSON                                          JR.    ADA                      BOISE                                             ST. LUKE'S REGIONAL MEDICAL CENTER                SALLY                                             JANE                                              JONES                                                    BAKER                                             FRIEDA                                            SMYTHE                                                                                                                              1413 E. HAYS                                      83712    ADA                         BOISE                       IDAHO                       U.S.                        JACK                                              ANDY                                              ARNEZ                                                    2222222224444444443639                                                                                                                WAUS   10001   10001                                                                                                                                                                                                                                                          IDAHO                                                   WASHINGTON                                                                                                                         1413 E. HAYS                                      83712                                BOISE                       IDAHO                                                   Y1N                                                                          DAVIS, ROBERT W.                                              1                                                          20150105                                                  1                                                                                                                                                                                                                                                                                                                                                                                                                                                                                                                                                                                                                                                                                                                                                                                                                                                                                                                                                                                                                      
2015ID0000120            1528M01010011            0002198008300CAUS08830001IDUSY198104010UYX40NNNN                    YNNNNNNNNNNNNNN                                                                                                                                                                                                                                                                                                40NNNN                    YNNNNNNNNNNNNNN                                                                                                                                                                                                                                                                                                1N0622201412242014130506015501720N01000007201188888800000000220140409NNNNNNNNY010NNNNNNNNNNNNNNNNNYNNNYNN14NNNNNNN3352038008880199990000000NNNNNNNNNNNNNNNNNNNNYY        9999NXX                 20150105                                                 GEORGE                                            NATE                                              SMITHSON                                          JR.    ADA                      BOISE                                             ST. LUKE'S REGIONAL MEDICAL CENTER                SALLY                                             JANE                                              JONES                                                    BAKER                                             FRIEDA                                            SMYTHE                                                                                                                              11354 W. PATTIE COURT                             83713    ADA                         BOISE                       IDAHO                       U.S.                        JACK                                              ANDY                                              ARNEZ                                                    2222222224444444443433                                                                                                                CAUS   10001   10001                                                                                                                                                                                                                                                          CALIFORNIA                                              CALIFORNIA                                                                                                                         11354 W. PATTIE COURT                             83713                                BOISE                       IDAHO                                                   Y1N                                                                          LOVELACE, GLEN S.                                             1                                                          20150105                                                  1                                                                                                                                                                                                                                                                                                                                                                                                                                                                                                                                                                                                                                                                                                                                                                                                                                                                                                                                                                                                                      
2015ID0000130            1516M01020011            0120198612190IDUS08830001IDUSY198706040UNY30NNNN                    YNNNNNNNNNNNNNN                                                                                                                                                                                                                                                                                                40NNNN                    YNNNNNNNNNNNNNN                                                                                                                                                                                                                                                                                                1N0602201401012015150507019002110Y02000099200788888800000000120140320NNNNNNNNN000NNNNNNNNNNNYNYNNNNNNYYNN11XNNNNNN3676042009880199990000000NNNNNNNNNNNNNNNNNNNNYY        9999NXX                 20150106                                                 GEORGE                                            NATE                                              SMITHSON                                          JR.    ADA                      MERIDIAN                                          ST. LUKE'S MERIDIAN MEDICAL CENTER                SALLY                                             JANE                                              JONES                                                    BAKER                                             FRIEDA                                            SMYTHE                                                                                                                              8900 IRVING ST                                    83704    ADA                         BOISE                       IDAHO                       U.S.                        JACK                                              ANDY                                              ARNEZ                                                    2222222224444444442827                                                                                                                SCUS   10001   10001                                                                                                                                                                                                                                                          IDAHO                                                   SOUTH CAROLINA                                                                                                                     8900 IRVING ST                                    83704                                BOISE                       IDAHO                                                   Y1N                                                                          PITTARD, DARREN S.                                            1                                                          20150106                                                  1                                                                                                                                                                                                                                                                                                                                                                                                                                                                                                                                                                                                                                                                                                                                                                                                                                                                                                                                                                                                                      
2015ID0000140            1446M01030691            0128198404250IDUS00000003WAUSN197804300UYX60HNNN                    YNNNNNNNNNNNNNN                                                                                                                                                                                                                                                                                                60NNNN                    YNNNNNNNNNNNNNN                                                                                                                                                                                                                                                                                                1N0509201401022015130504014801900N01000001201288888800000000120140315NNNNNNNNN000NNNNNNNNNNNNNNNNNNNNNYNN11XNYNNNN4380040009880199990000000NNYNYNNNNNNNNNNNNNNNYY        9999NXX                 20150106                                                 GEORGE                                            NATE                                              SMITHSON                                          JR.    NEZ PERCE                LEWISTON                                          ST. JOSEPH REGIONAL MEDICAL CENTER                SALLY                                             JANE                                              JONES                                                    BAKER                                             FRIEDA                                            SMYTHE                                                                                                                              2204 PAULS PLACE DRIVE                            99403    ASOTIN                      CLARKSTON                   WASHINGTON                  U.S.                        JACK                                              ANDY                                              ARNEZ                                                    2222222224444444443036                                                                                                                IDUS   21001   10001                                                                                                                                                                                                                                                          IDAHO                                                   IDAHO                                                                                                                              2204 PAULS PLACE DRIVE                            99403                                CLARKSTON                   WASHINGTON                                              Y1N                                                                          BERG, SARA A.                                                 1                                                          20150106                                                  1                                                                                                                                                                                                                                                                                                                                                                                                                                                                                                                                                                                                                                                                                                                                                                                                                                                                                                                                                                                                                      
2015ID0000150            2220M01010551            0102199201240COUS64810055IDUSY999999990UNN40NNNN                    YNNNNNNNNNNNNNN                                                                                                                                                                                                                                                                                                90UUUU                    NNNNNNNNNNNNNNN                                                                                                                                                                                                                                                                                                1N1203201412312014050500012001710Y00000088888888888807070703120140320NNNNNNNNN000NNNNNNNNNNYNNYNNNNNNNYNN11XNNNNNN3686041009880199990000000NNNNNNNNNNNNNNNNNNNNYY        9999NXX                 20150106                                                 GEORGE                                            NATE                                              SMITHSON                                          JR.    KOOTENAI                 COEUR D'ALENE                                     KOOTENAI HEALTH                                   SALLY                                             JANE                                              JONES                                                    BAKER                                             FRIEDA                                            SMYTHE                                                                                                                              3219 E. OSLER AVE.                                83854    KOOTENAI                    POST FALLS                  IDAHO                       U.S.                        JACK                                              ANDY                                              ARNEZ                                                    2222222224444444442299                                                                                                                ZZZZ   10001   99899                                                                                                                                                                                                                                                          COLORADO                                                                            UNKNOWN COUNTRY                                                                                        3219 E. OSLER AVE.                                83854                                POST FALLS                  IDAHO                                                   Y1N                                                                          HILL, REAGAN                                                  1                                                          20150106                                                  1                                                                                                                                                                                                                                                                                                                                                                                                                                                                                                                                                                                                                                                                                                                                                                                                                                                                                                                                                                                                                      
2015ID0000160            1245F01020551            0102198002190XXUK64810055IDUSY198006080UYX30NNNN                    YNNNNNNNNNNNNNN                                                                                                                                                                                                                                                                                                30NNNN                    YNNNNNNNNNNNNNN                                                                                                                                                                                                                                                                                                1N0624201412302014110506019002150Y03000010201388888800000000220140224NNNNNNNNN000NNNNNNNNNNNNNNYNNNNNNYNN11XNNNNNN3317035008880199990000000NNYNNNNNNNNNNNNNNNNNYY        9999NXX                 20150106                                                 GEORGE                                            NATE                                              SMITHSON                                          JR.    KOOTENAI                 COEUR D'ALENE                                     KOOTENAI HEALTH                                   SALLY                                             JANE                                              JONES                                                    BAKER                                             FRIEDA                                            SMYTHE                                                                                                                              608 W 12TH AVE                                    83854    KOOTENAI                    POST FALLS                  IDAHO                       U.S.                        JACK                                              ANDY                                              ARNEZ                                                    2222222224444444443434                                                                                                                IDUS   10001   10001                                                                                                                                                                                                                                                                                      ENGLAND                     IDAHO                                                                                                                              608 W 12TH AVE                                    83854                                POST FALLS                  IDAHO                                                   Y1N                                                                          WARZECHA, KATY L.                                             1                                                          20150106                                                  1                                                                                                                                                                                                                                                                                                                                                                                                                                                                                                                                                                                                                                                                                                                                                                                                                                                                                                                                                                                                                      
2015ID0000170            2022F01020551            0102198708210ORUS16750055IDUSY197809150UYX40NNNN                    YNNNNNNNNNNNNNN                                                                                                                                                                                                                                                                                                40NNNN                    YNNNNNNNNNNNNNN                                                                                                                                                                                                                                                                                                1N0605201412302014160505017502230Y00000088888888888802020000120140301NNNNNNNNN000NNNNNNNNNNYNYYNNNYNNNYNN14YNNNNNN3374040009880199990000000YNYNNNNNNNNNNNNNNNNNYY        9999NXX                 20150106                                                 GEORGE                                            NATE                                              SMITHSON                                          JR.    KOOTENAI                 COEUR D'ALENE                                     KOOTENAI HEALTH                                   SALLY                                             JANE                                              JONES                                                    BAKER                                             FRIEDA                                            SMYTHE                                                                                                                              951 W. EMMA AVE                                   83814    KOOTENAI                    COEUR D'ALENE               IDAHO                       U.S.                        JACK                                              ANDY                                              ARNEZ                                                    2222222224444444442736                                                                                                                CAUS   10001   10001                                                                                                                                                                                                                                                          OREGON                                                  CALIFORNIA                                                                                                                         951 W. EMMA AVE                                   83814                                COEUR D'ALENE               IDAHO                                                   Y1N                                                                          CUTTING, JON A.                                               1                                                          20150106                                                  1                                                                                                                                                                                                                                                                                                                                                                                                                                                                                                                                                                                                                                                                                                                                                                                                                                                                                                                                                                                                                      
2015ID0000180            0053M01040012            0778198303140ORUS52120001IDUSY198403030UYX50NNNN                    YNNNNNNNNNNNNNN                                                                                                                                                                                                                                                                                                50NNNN                    YNNNNNNNNNNNNNN                                                                                                                                                                                                                                                                                                3N0825201412292014120506026002750N00000088888888888800000000320140304NNNNNNNNN000NNNNNNNNNNNNNNNNNYNYNNNN11XNNNNNN3969041009880199990000000NNNNNNNNNNNNNNNNNNNNYY        9999NXX                 20150106                                                 GEORGE                                            NATE                                              SMITHSON                                          JR.    ADA                      BOISE                                             TREASURE VALLEY MIDWIVES BIRTH CENTER             SALLY                                             JANE                                              JONES                                                    BAKER                                             FRIEDA                                            SMYTHE                                                                                                                              3040 E. SPRINGWOOD DR                             83642    ADA                         MERIDIAN                    IDAHO                       U.S.                        JACK                                              ANDY                                              ARNEZ                                                    2222222224444444443130                                                                                                                ORUS   10001   10001                                                                                                                                                                                                                                                          OREGON                                                  OREGON                                                                                                                             3040 E. SPRINGWOOD DR                             83642                                MERIDIAN                    IDAHO                                                   Y1N                                                                          BRYMAN, MARISA                                                3                                                          20150106                                                  1                                                                                                                                                                                                                                                                                                                                                                                                                                                                                                                                                                                                                                                                                                                                                                                                                                                                                                                                                                                                                      
2015ID0000190            1911F01020011            0002197910310TXUS52120001IDUSY198210100UYY30NNNN                    YNNNNNNNNNNNNNN                                                                                                                                                                                                                                                                                                90UUUU                    NNNNNNNNNNNNNNN                                                                                                                                                                                                                                                                                                1N1028201412192014050505013001720Y02000009200288888810101010120140402NNNNNNNNN000NNNNNNNNNNYNNNYNNNNNNYNN11XNNNNNN3523039008880199990000000NNNNNNNNNNNNNNNNNNNNYN        9999NXX                 20150106                                                 GEORGE                                            NATE                                              SMITHSON                                          JR.    ADA                      BOISE                                             ST. LUKE'S REGIONAL MEDICAL CENTER                SALLY                                             JANE                                              JONES                                                    BAKER                                             FRIEDA                                            SMYTHE                                                                                                                              4122 W. PATEL DRIVE                               83646    ADA                         MERIDIAN                    IDAHO                       U.S.                        JACK                                              ANDY                                              ARNEZ                                                    2222222224444444443532                                                                                                                IDUS   10001   99899                                                                                                                                                                                                                                                          TEXAS                                                   IDAHO                                                                                                                              4122 W. PATEL DRIVE                               83646                                MERIDIAN                    IDAHO                                                   Y1N                                                                          ALLEN, SUZANNE M.                                             1                                                          20150106                                                  1                                                                                                                                                                                                                                                                                                                                                                                                                                                                                                                                                                                                                                                                                                                                                                                                                                                                                                                                                                                                                      
2015ID0000200            0806F01020011            0002198911120AZUS54730039IDUSY199202040UYX20HNNN                    NNYNNNNNNNNNNNNTOHONO O'ODNAM                                                                                                                                                                                                                                                                                  40NNNN                    NNYNNNNNNNNNNNNUNKNOWN                                                                                                                                                                                                                                                                                         1N0720201412292014120504015501880N02000011201188888800000000520140328YNNNNNNNY020NNNNNNNNNNNNNNNNNYNNNYNN14NNNNNNN4273039008880199990000000NNNNNNNNNNNNNNNNNNNNYY        9999NXX                 20150106                                                 GEORGE                                            NATE                                              SMITHSON                                          JR.    ADA                      BOISE                                             ST. LUKE'S REGIONAL MEDICAL CENTER                SALLY                                             JANE                                              JONES                                                    BAKER                                             FRIEDA                                            SMYTHE                                                                                                                              1370 OWYHEE DRIVE                                 83647    ELMORE                      MOUNTAIN HOME               IDAHO                       U.S.                        JACK                                              ANDY                                              ARNEZ                                                    2222222224444444442522                                                                                                                NCUS   21003   10003                                                                                                                                                                                                                                                          ARIZONA                                                 NORTH CAROLINA                                                                                                                     1370 OWYHEE DRIVE                                 83647                                MOUNTAIN HOME               IDAHO                                                   Y1N                                                                          KOSZALKA, MICHAEL F.                                          1                                                          20150106                                                  1                                                                                                                                                                                                                                                                                                                                                                                                                                                                                                                                                                                                                                                                                                                                                                                                                                                                                                                                                                                                                      
2015ID0000210            1608M01020011            0002198810070TXUS52120001IDUSY197805020UYX60NNNN                    YNNNNNNNNNNNNNN                                                                                                                                                                                                                                                                                                50NNNN                    YNNNNNNNNNNNNNN                                                                                                                                                                                                                                                                                                1N0528201412292014130504016601920N01000012201388888800000000220140403NNNNNNNNN000NNYNNNNNNNNNNYNNNNNNNYNN11XNNNNNN3796039008880199990000000NYYNNNNNNNNNNNNNNNNNYY        9999NXX                 20150106                                                 GEORGE                                            NATE                                              SMITHSON                                          JR.    ADA                      BOISE                                             ST. LUKE'S REGIONAL MEDICAL CENTER                SALLY                                             JANE                                              JONES                                                    BAKER                                             FRIEDA                                            SMYTHE                                                                                                                              3073 S. SILVERTIP LANE                            83642    ADA                         MERIDIAN                    IDAHO                       U.S.                        JACK                                              ANDY                                              ARNEZ                                                    2222222224444444442636                                                                                                                MSUS   10001   10001                                                                                                                                                                                                                                                          TEXAS                                                   MISSISSIPPI                                                                                                                        3073 S. SILVERTIP LANE                            83642                                MERIDIAN                    IDAHO                                                   Y1N                                                                          FEALKO, MONIKA G.                                             1                                                          20150106                                                  1                                                                                                                                                                                                                                                                                                                                                                                                                                                                                                                                                                                                                                                                                                                                                                                                                                                                                                                                                                                                                      
2015ID0000220            1910M01020011            0002197908010CAUS08830001IDUSY197908190UYX60NNNN                    YNNNNNNNNNNNNNN                                                                                                                                                                                                                                                                                                80NNNN                    YNNNNNNNNNNNNNN                                                                                                                                                                                                                                                                                                1N0616201412292014120505012701590N01000006201288888800000000220140409NNNNNNNNN000NNNNNNNNNNNYNNNNNNNNNNNN11XNNNNNN3352038008880199990000000NNNNNNNNNNNNNNNNNNNNYY        9999NXX                 20150106                                                 GEORGE                                            NATE                                              SMITHSON                                          JR.    ADA                      BOISE                                             ST. LUKE'S REGIONAL MEDICAL CENTER                SALLY                                             JANE                                              JONES                                                    BAKER                                             FRIEDA                                            SMYTHE                                                                                                                              2307 W. IRENE STREET                              83702    ADA                         BOISE                       IDAHO                       U.S.                        JACK                                              ANDY                                              ARNEZ                                                    2222222224444444443535                                                                                                                CAUS   10001   10001                                                                                                                                                                                                                                                          CALIFORNIA                                              CALIFORNIA                                                                                                                         2307 W. IRENE STREET                              83702                                BOISE                       IDAHO                                                   Y1N                                                                          BRADLEY, JENNI L.                                             1                                                          20150106                                                  1                                                                                                                                                                                                                                                                                                                                                                                                                                                                                                                                                                                                                                                                                                                                                                                                                                                                                                                                                                                                                      
2015ID0000230            0158M01020011            0002199212090XXMX08830001IDUSY198610220UYX30HNNN                    NNNNNNNNNNNNNNY                                                                                                                                                                                    HISPANIC                                                                                                    40NNNN                    YNNNNNNNNNNNNNN                                                                                                                                                                                                                                                                                                1N0530201412292014130502011001480Y00000088888888888800000000120140324NNNNNNNNN000NNNNNNNNNNNNNNNNNNNYNYNN11XNNNNNN2892040008880199990000000NNNNNNNNNNNNNNNNNNNNYY        9999NXX                 20150106                                                 GEORGE                                            NATE                                              SMITHSON                                          JR.    ADA                      BOISE                                             ST. LUKE'S REGIONAL MEDICAL CENTER                SALLY                                             JANE                                              JONES                                                    BAKER                                             FRIEDA                                            SMYTHE                                                                                                                              305 S. PHILLIPPI STREET                           83705    ADA                         BOISE                       IDAHO                       U.S.                        JACK                                              ANDY                                              ARNEZ                                                    2222222224444444442228                                                                                                                IDUS   21015   10001                                                                                                                                                                                                                                                                                      MEXICO                      IDAHO                                                                                                                              305 S. PHILLIPPI STREET                           83705                                BOISE                       IDAHO                                                   Y1N                                                                          KLOMP, GERARD R.                                              1                                                          20150106                                                  1                                                                                                                                                                                                                                                                                                                                                                                                                                                                                                                                                                                                                                                                                                                                                                                                                                                                                                                                                                                                                      
2015ID0000240            0533F01030011            0002198009180IDUS08830001IDUSY198010170UYX60NNNN                    YNNNNNNNNNNNNNN                                                                                                                                                                                                                                                                                                60NNNN                    YNNNNNNNNNNNNNN                                                                                                                                                                                                                                                                                                1N0620201401022015140509015501950N01000008201288888800000000220140327NNNNNNNNN000NNNNNNNNNNNNNNNNNNNNNYNN11XNNNNNN3131039008880199990000000NNNNNNNNNNNNNNNNNNNNYY        9999NXX                 20150106                                                 GEORGE                                            NATE                                              SMITHSON                                          JR.    ADA                      BOISE                                             ST. LUKE'S REGIONAL MEDICAL CENTER                SALLY                                             JANE                                              JONES                                                    BAKER                                             FRIEDA                                            SMYTHE                                                                                                                              1515 N. 26TH STREET                               83702    ADA                         BOISE                       IDAHO                       U.S.                        JACK                                              ANDY                                              ARNEZ                                                    2222222224444444443434                                                                                                                TXUS   10001   10001                                                                                                                                                                                                                                                          IDAHO                                                   TEXAS                                                                                                                              1515 N. 26TH STREET                               83702                                BOISE                       IDAHO                                                   Y1N                                                                          COOK, JENNIFER K.                                             1                                                          20150106                                                  1                                                                                                                                                                                                                                                                                                                                                                                                                                                                                                                                                                                                                                                                                                                                                                                                                                                                                                                                                                                                                      
